{
  "_format": "hh-sol-artifact-1",
  "contractName": "Boxes",
  "sourceName": "contracts/Boxes.sol",
  "abi": [
    {
      "inputs": [
        {
          "internalType": "address",
          "name": "keysContractAddress",
          "type": "address"
        }
      ],
      "stateMutability": "nonpayable",
      "type": "constructor"
    },
    {
      "inputs": [
        {
          "internalType": "address",
          "name": "owner",
          "type": "address"
        }
      ],
      "name": "OwnableInvalidOwner",
      "type": "error"
    },
    {
      "inputs": [
        {
          "internalType": "address",
          "name": "account",
          "type": "address"
        }
      ],
      "name": "OwnableUnauthorizedAccount",
      "type": "error"
    },
    {
      "anonymous": false,
      "inputs": [
        {
          "indexed": true,
          "internalType": "address",
          "name": "previousOwner",
          "type": "address"
        },
        {
          "indexed": true,
          "internalType": "address",
          "name": "newOwner",
          "type": "address"
        }
      ],
      "name": "OwnershipTransferred",
      "type": "event"
    },
    {
      "inputs": [
        {
          "internalType": "address",
          "name": "user",
          "type": "address"
        }
      ],
      "name": "balanceOf",
      "outputs": [
        {
          "internalType": "uint256",
          "name": "",
          "type": "uint256"
        }
      ],
      "stateMutability": "view",
      "type": "function"
    },
    {
      "inputs": [],
      "name": "flipSale",
      "outputs": [],
      "stateMutability": "nonpayable",
      "type": "function"
    },
    {
      "inputs": [
        {
          "internalType": "address",
          "name": "user",
          "type": "address"
        }
      ],
      "name": "getUserTokens",
      "outputs": [
        {
          "internalType": "uint256[]",
          "name": "",
          "type": "uint256[]"
        }
      ],
      "stateMutability": "view",
      "type": "function"
    },
    {
      "inputs": [
        {
          "internalType": "address",
          "name": "receiver",
          "type": "address"
        },
        {
          "internalType": "uint256",
          "name": "keyTokenId",
          "type": "uint256"
        },
        {
          "internalType": "uint256",
          "name": "boxTokenId",
          "type": "uint256"
        }
      ],
      "name": "mintBox",
      "outputs": [],
      "stateMutability": "nonpayable",
      "type": "function"
    },
    {
      "inputs": [],
      "name": "owner",
      "outputs": [
        {
          "internalType": "address",
          "name": "",
          "type": "address"
        }
      ],
      "stateMutability": "view",
      "type": "function"
    },
    {
      "inputs": [],
      "name": "renounceOwnership",
      "outputs": [],
      "stateMutability": "nonpayable",
      "type": "function"
    },
    {
      "inputs": [
        {
          "internalType": "address",
          "name": "newOwner",
          "type": "address"
        }
      ],
      "name": "transferOwnership",
      "outputs": [],
      "stateMutability": "nonpayable",
      "type": "function"
    }
  ],
  "bytecode": "0x60806040523480156200001157600080fd5b5060405162000d7138038062000d71833981810160405281019062000037919062000291565b33600073ffffffffffffffffffffffffffffffffffffffff168173ffffffffffffffffffffffffffffffffffffffff1603620000ad5760006040517f1e4fbdf7000000000000000000000000000000000000000000000000000000008152600401620000a49190620002d4565b60405180910390fd5b620000be816200016360201b60201c565b5033600160006101000a81548173ffffffffffffffffffffffffffffffffffffffff021916908373ffffffffffffffffffffffffffffffffffffffff16021790555080600260006101000a81548173ffffffffffffffffffffffffffffffffffffffff021916908373ffffffffffffffffffffffffffffffffffffffff1602179055506001600260146101000a81548160ff02191690831515021790555050620002f1565b60008060009054906101000a900473ffffffffffffffffffffffffffffffffffffffff169050816000806101000a81548173ffffffffffffffffffffffffffffffffffffffff021916908373ffffffffffffffffffffffffffffffffffffffff1602179055508173ffffffffffffffffffffffffffffffffffffffff168173ffffffffffffffffffffffffffffffffffffffff167f8be0079c531659141344cd1fd0a4f28419497f9722a3daafe3b4186f6b6457e060405160405180910390a35050565b600080fd5b600073ffffffffffffffffffffffffffffffffffffffff82169050919050565b600062000259826200022c565b9050919050565b6200026b816200024c565b81146200027757600080fd5b50565b6000815190506200028b8162000260565b92915050565b600060208284031215620002aa57620002a962000227565b5b6000620002ba848285016200027a565b91505092915050565b620002ce816200024c565b82525050565b6000602082019050620002eb6000830184620002c3565b92915050565b610a7080620003016000396000f3fe608060405234801561001057600080fd5b506004361061007d5760003560e01c80637ba5e6211161005b5780637ba5e621146100ec5780638da5cb5b146100f6578063b78ef0b914610114578063f2fde38b146101305761007d565b8063519dc8d21461008257806370a08231146100b2578063715018a6146100e2575b600080fd5b61009c60048036038101906100979190610725565b61014c565b6040516100a9919061081a565b60405180910390f35b6100cc60048036038101906100c79190610725565b6101e3565b6040516100d9919061084b565b60405180910390f35b6100ea61022f565b005b6100f4610243565b005b6100fe610268565b60405161010b9190610875565b60405180910390f35b61012e600480360381019061012991906108bc565b610291565b005b61014a60048036038101906101459190610725565b6104e9565b005b6060600360008373ffffffffffffffffffffffffffffffffffffffff1673ffffffffffffffffffffffffffffffffffffffff1681526020019081526020016000208054806020026020016040519081016040528092919081815260200182805480156101d757602002820191906000526020600020905b8154815260200190600101908083116101c3575b50505050509050919050565b6000600360008373ffffffffffffffffffffffffffffffffffffffff1673ffffffffffffffffffffffffffffffffffffffff168152602001908152602001600020805490509050919050565b61023761056f565b61024160006105f6565b565b61024b61056f565b6000600260146101000a81548160ff021916908315150217905550565b60008060009054906101000a900473ffffffffffffffffffffffffffffffffffffffff16905090565b61029961056f565b600260149054906101000a900460ff166102e8576040517f08c379a00000000000000000000000000000000000000000000000000000000081526004016102df9061096c565b60405180910390fd5b8273ffffffffffffffffffffffffffffffffffffffff16600260009054906101000a900473ffffffffffffffffffffffffffffffffffffffff1673ffffffffffffffffffffffffffffffffffffffff16636352211e846040518263ffffffff1660e01b815260040161035a919061084b565b602060405180830381865afa158015610377573d6000803e3d6000fd5b505050506040513d601f19601f8201168201806040525081019061039b91906109a1565b73ffffffffffffffffffffffffffffffffffffffff16146103f1576040517f08c379a00000000000000000000000000000000000000000000000000000000081526004016103e890610a1a565b60405180910390fd5b600260009054906101000a900473ffffffffffffffffffffffffffffffffffffffff1673ffffffffffffffffffffffffffffffffffffffff16637b47ec1a836040518263ffffffff1660e01b815260040161044c919061084b565b600060405180830381600087803b15801561046657600080fd5b505af115801561047a573d6000803e3d6000fd5b50505050600360008473ffffffffffffffffffffffffffffffffffffffff1673ffffffffffffffffffffffffffffffffffffffff168152602001908152602001600020819080600181540180825580915050600190039060005260206000200160009091909190915055505050565b6104f161056f565b600073ffffffffffffffffffffffffffffffffffffffff168173ffffffffffffffffffffffffffffffffffffffff16036105635760006040517f1e4fbdf700000000000000000000000000000000000000000000000000000000815260040161055a9190610875565b60405180910390fd5b61056c816105f6565b50565b6105776106ba565b73ffffffffffffffffffffffffffffffffffffffff16610595610268565b73ffffffffffffffffffffffffffffffffffffffff16146105f4576105b86106ba565b6040517f118cdaa70000000000000000000000000000000000000000000000000000000081526004016105eb9190610875565b60405180910390fd5b565b60008060009054906101000a900473ffffffffffffffffffffffffffffffffffffffff169050816000806101000a81548173ffffffffffffffffffffffffffffffffffffffff021916908373ffffffffffffffffffffffffffffffffffffffff1602179055508173ffffffffffffffffffffffffffffffffffffffff168173ffffffffffffffffffffffffffffffffffffffff167f8be0079c531659141344cd1fd0a4f28419497f9722a3daafe3b4186f6b6457e060405160405180910390a35050565b600033905090565b600080fd5b600073ffffffffffffffffffffffffffffffffffffffff82169050919050565b60006106f2826106c7565b9050919050565b610702816106e7565b811461070d57600080fd5b50565b60008135905061071f816106f9565b92915050565b60006020828403121561073b5761073a6106c2565b5b600061074984828501610710565b91505092915050565b600081519050919050565b600082825260208201905092915050565b6000819050602082019050919050565b6000819050919050565b6107918161077e565b82525050565b60006107a38383610788565b60208301905092915050565b6000602082019050919050565b60006107c782610752565b6107d1818561075d565b93506107dc8361076e565b8060005b8381101561080d5781516107f48882610797565b97506107ff836107af565b9250506001810190506107e0565b5085935050505092915050565b6000602082019050818103600083015261083481846107bc565b905092915050565b6108458161077e565b82525050565b6000602082019050610860600083018461083c565b92915050565b61086f816106e7565b82525050565b600060208201905061088a6000830184610866565b92915050565b6108998161077e565b81146108a457600080fd5b50565b6000813590506108b681610890565b92915050565b6000806000606084860312156108d5576108d46106c2565b5b60006108e386828701610710565b93505060206108f4868287016108a7565b9250506040610905868287016108a7565b9150509250925092565b600082825260208201905092915050565b7f4f70656e696e6720626f786573206e6f7420617661696c61626c652100000000600082015250565b6000610956601c8361090f565b915061096182610920565b602082019050919050565b6000602082019050818103600083015261098581610949565b9050919050565b60008151905061099b816106f9565b92915050565b6000602082840312156109b7576109b66106c2565b5b60006109c58482850161098c565b91505092915050565b7f496e76616c6964206b6579206f776e6572000000000000000000000000000000600082015250565b6000610a0460118361090f565b9150610a0f826109ce565b602082019050919050565b60006020820190508181036000830152610a33816109f7565b905091905056fea264697066735822122022fb67be0e9cb399c291edd00fedacc7a73b30f73f82bd08eff90e67cb68869c64736f6c63430008140033",
  "linkReferences": {},
  "deployedLinkReferences": {}
}