{
  "_format": "hh-sol-artifact-1",
  "contractName": "LootyfiKeys",
  "sourceName": "contracts/LootyfiKeys.sol",
  "abi": [
    {
      "inputs": [
        {
          "internalType": "string",
          "name": "_collectionName",
          "type": "string"
        },
        {
          "internalType": "string",
          "name": "_collectionSymbol",
          "type": "string"
        }
      ],
      "stateMutability": "nonpayable",
      "type": "constructor"
    },
    {
      "inputs": [
        {
          "internalType": "uint256",
          "name": "numerator",
          "type": "uint256"
        },
        {
          "internalType": "uint256",
          "name": "denominator",
          "type": "uint256"
        }
      ],
      "name": "ERC2981InvalidDefaultRoyalty",
      "type": "error"
    },
    {
      "inputs": [
        {
          "internalType": "address",
          "name": "receiver",
          "type": "address"
        }
      ],
      "name": "ERC2981InvalidDefaultRoyaltyReceiver",
      "type": "error"
    },
    {
      "inputs": [
        {
          "internalType": "uint256",
          "name": "tokenId",
          "type": "uint256"
        },
        {
          "internalType": "uint256",
          "name": "numerator",
          "type": "uint256"
        },
        {
          "internalType": "uint256",
          "name": "denominator",
          "type": "uint256"
        }
      ],
      "name": "ERC2981InvalidTokenRoyalty",
      "type": "error"
    },
    {
      "inputs": [
        {
          "internalType": "uint256",
          "name": "tokenId",
          "type": "uint256"
        },
        {
          "internalType": "address",
          "name": "receiver",
          "type": "address"
        }
      ],
      "name": "ERC2981InvalidTokenRoyaltyReceiver",
      "type": "error"
    },
    {
      "inputs": [
        {
          "internalType": "address",
          "name": "sender",
          "type": "address"
        },
        {
          "internalType": "uint256",
          "name": "tokenId",
          "type": "uint256"
        },
        {
          "internalType": "address",
          "name": "owner",
          "type": "address"
        }
      ],
      "name": "ERC721IncorrectOwner",
      "type": "error"
    },
    {
      "inputs": [
        {
          "internalType": "address",
          "name": "operator",
          "type": "address"
        },
        {
          "internalType": "uint256",
          "name": "tokenId",
          "type": "uint256"
        }
      ],
      "name": "ERC721InsufficientApproval",
      "type": "error"
    },
    {
      "inputs": [
        {
          "internalType": "address",
          "name": "approver",
          "type": "address"
        }
      ],
      "name": "ERC721InvalidApprover",
      "type": "error"
    },
    {
      "inputs": [
        {
          "internalType": "address",
          "name": "operator",
          "type": "address"
        }
      ],
      "name": "ERC721InvalidOperator",
      "type": "error"
    },
    {
      "inputs": [
        {
          "internalType": "address",
          "name": "owner",
          "type": "address"
        }
      ],
      "name": "ERC721InvalidOwner",
      "type": "error"
    },
    {
      "inputs": [
        {
          "internalType": "address",
          "name": "receiver",
          "type": "address"
        }
      ],
      "name": "ERC721InvalidReceiver",
      "type": "error"
    },
    {
      "inputs": [
        {
          "internalType": "address",
          "name": "sender",
          "type": "address"
        }
      ],
      "name": "ERC721InvalidSender",
      "type": "error"
    },
    {
      "inputs": [
        {
          "internalType": "uint256",
          "name": "tokenId",
          "type": "uint256"
        }
      ],
      "name": "ERC721NonexistentToken",
      "type": "error"
    },
    {
      "inputs": [
        {
          "internalType": "address",
          "name": "owner",
          "type": "address"
        }
      ],
      "name": "OwnableInvalidOwner",
      "type": "error"
    },
    {
      "inputs": [
        {
          "internalType": "address",
          "name": "account",
          "type": "address"
        }
      ],
      "name": "OwnableUnauthorizedAccount",
      "type": "error"
    },
    {
      "anonymous": false,
      "inputs": [
        {
          "indexed": true,
          "internalType": "address",
          "name": "owner",
          "type": "address"
        },
        {
          "indexed": true,
          "internalType": "address",
          "name": "approved",
          "type": "address"
        },
        {
          "indexed": true,
          "internalType": "uint256",
          "name": "tokenId",
          "type": "uint256"
        }
      ],
      "name": "Approval",
      "type": "event"
    },
    {
      "anonymous": false,
      "inputs": [
        {
          "indexed": true,
          "internalType": "address",
          "name": "owner",
          "type": "address"
        },
        {
          "indexed": true,
          "internalType": "address",
          "name": "operator",
          "type": "address"
        },
        {
          "indexed": false,
          "internalType": "bool",
          "name": "approved",
          "type": "bool"
        }
      ],
      "name": "ApprovalForAll",
      "type": "event"
    },
    {
      "anonymous": false,
      "inputs": [
        {
          "indexed": false,
          "internalType": "uint256",
          "name": "_fromTokenId",
          "type": "uint256"
        },
        {
          "indexed": false,
          "internalType": "uint256",
          "name": "_toTokenId",
          "type": "uint256"
        }
      ],
      "name": "BatchMetadataUpdate",
      "type": "event"
    },
    {
      "anonymous": false,
      "inputs": [
        {
          "indexed": false,
          "internalType": "uint256",
          "name": "_tokenId",
          "type": "uint256"
        }
      ],
      "name": "MetadataUpdate",
      "type": "event"
    },
    {
      "anonymous": false,
      "inputs": [
        {
          "indexed": true,
          "internalType": "address",
          "name": "previousOwner",
          "type": "address"
        },
        {
          "indexed": true,
          "internalType": "address",
          "name": "newOwner",
          "type": "address"
        }
      ],
      "name": "OwnershipTransferred",
      "type": "event"
    },
    {
      "anonymous": false,
      "inputs": [
        {
          "indexed": true,
          "internalType": "address",
          "name": "from",
          "type": "address"
        },
        {
          "indexed": true,
          "internalType": "address",
          "name": "to",
          "type": "address"
        },
        {
          "indexed": true,
          "internalType": "uint256",
          "name": "tokenId",
          "type": "uint256"
        }
      ],
      "name": "Transfer",
      "type": "event"
    },
    {
      "inputs": [
        {
          "internalType": "address",
          "name": "to",
          "type": "address"
        },
        {
          "internalType": "uint256",
          "name": "tokenId",
          "type": "uint256"
        }
      ],
      "name": "approve",
      "outputs": [],
      "stateMutability": "nonpayable",
      "type": "function"
    },
    {
      "inputs": [
        {
          "internalType": "address",
          "name": "owner",
          "type": "address"
        }
      ],
      "name": "balanceOf",
      "outputs": [
        {
          "internalType": "uint256",
          "name": "",
          "type": "uint256"
        }
      ],
      "stateMutability": "view",
      "type": "function"
    },
    {
      "inputs": [
        {
          "internalType": "uint256",
          "name": "tokenId",
          "type": "uint256"
        }
      ],
      "name": "burnToken",
      "outputs": [],
      "stateMutability": "nonpayable",
      "type": "function"
    },
    {
      "inputs": [],
      "name": "flipSale",
      "outputs": [],
      "stateMutability": "nonpayable",
      "type": "function"
    },
    {
      "inputs": [
        {
          "internalType": "uint256",
          "name": "tokenId",
          "type": "uint256"
        }
      ],
      "name": "getApproved",
      "outputs": [
        {
          "internalType": "address",
          "name": "",
          "type": "address"
        }
      ],
      "stateMutability": "view",
      "type": "function"
    },
    {
      "inputs": [],
      "name": "getMintedCount",
      "outputs": [
        {
          "internalType": "uint256",
          "name": "",
          "type": "uint256"
        }
      ],
      "stateMutability": "view",
      "type": "function"
    },
    {
      "inputs": [
        {
          "internalType": "address",
          "name": "owner",
          "type": "address"
        },
        {
          "internalType": "address",
          "name": "operator",
          "type": "address"
        }
      ],
      "name": "isApprovedForAll",
      "outputs": [
        {
          "internalType": "bool",
          "name": "",
          "type": "bool"
        }
      ],
      "stateMutability": "view",
      "type": "function"
    },
    {
      "inputs": [],
      "name": "mintLootyfiKey",
      "outputs": [],
      "stateMutability": "payable",
      "type": "function"
    },
    {
      "inputs": [],
      "name": "name",
      "outputs": [
        {
          "internalType": "string",
          "name": "",
          "type": "string"
        }
      ],
      "stateMutability": "view",
      "type": "function"
    },
    {
      "inputs": [],
      "name": "owner",
      "outputs": [
        {
          "internalType": "address",
          "name": "",
          "type": "address"
        }
      ],
      "stateMutability": "view",
      "type": "function"
    },
    {
      "inputs": [
        {
          "internalType": "uint256",
          "name": "tokenId",
          "type": "uint256"
        }
      ],
      "name": "ownerOf",
      "outputs": [
        {
          "internalType": "address",
          "name": "",
          "type": "address"
        }
      ],
      "stateMutability": "view",
      "type": "function"
    },
    {
      "inputs": [],
      "name": "renounceOwnership",
      "outputs": [],
      "stateMutability": "nonpayable",
      "type": "function"
    },
    {
      "inputs": [
        {
          "internalType": "uint256",
          "name": "tokenId",
          "type": "uint256"
        },
        {
          "internalType": "uint256",
          "name": "salePrice",
          "type": "uint256"
        }
      ],
      "name": "royaltyInfo",
      "outputs": [
        {
          "internalType": "address",
          "name": "",
          "type": "address"
        },
        {
          "internalType": "uint256",
          "name": "",
          "type": "uint256"
        }
      ],
      "stateMutability": "view",
      "type": "function"
    },
    {
      "inputs": [
        {
          "internalType": "address",
          "name": "from",
          "type": "address"
        },
        {
          "internalType": "address",
          "name": "to",
          "type": "address"
        },
        {
          "internalType": "uint256",
          "name": "tokenId",
          "type": "uint256"
        }
      ],
      "name": "safeTransferFrom",
      "outputs": [],
      "stateMutability": "nonpayable",
      "type": "function"
    },
    {
      "inputs": [
        {
          "internalType": "address",
          "name": "from",
          "type": "address"
        },
        {
          "internalType": "address",
          "name": "to",
          "type": "address"
        },
        {
          "internalType": "uint256",
          "name": "tokenId",
          "type": "uint256"
        },
        {
          "internalType": "bytes",
          "name": "data",
          "type": "bytes"
        }
      ],
      "name": "safeTransferFrom",
      "outputs": [],
      "stateMutability": "nonpayable",
      "type": "function"
    },
    {
      "inputs": [],
      "name": "saleIsActive",
      "outputs": [
        {
          "internalType": "bool",
          "name": "",
          "type": "bool"
        }
      ],
      "stateMutability": "view",
      "type": "function"
    },
    {
      "inputs": [
        {
          "internalType": "address",
          "name": "operator",
          "type": "address"
        },
        {
          "internalType": "bool",
          "name": "approved",
          "type": "bool"
        }
      ],
      "name": "setApprovalForAll",
      "outputs": [],
      "stateMutability": "nonpayable",
      "type": "function"
    },
    {
      "inputs": [
        {
          "internalType": "uint256",
          "name": "_startMintPrice",
          "type": "uint256"
        },
        {
          "internalType": "uint256",
          "name": "_bidIncrease",
          "type": "uint256"
        },
        {
          "internalType": "uint256",
          "name": "_totalSupply",
          "type": "uint256"
        },
        {
          "components": [
            {
              "internalType": "string",
              "name": "uri",
              "type": "string"
            },
            {
              "internalType": "enum LootyfiKeys.KeyType",
              "name": "keyType",
              "type": "uint8"
            }
          ],
          "internalType": "struct LootyfiKeys.KeysConfig[]",
          "name": "keyConfiguration",
          "type": "tuple[]"
        },
        {
          "internalType": "uint256",
          "name": "_endsAt",
          "type": "uint256"
        },
        {
          "internalType": "address",
          "name": "_royaltyDestination",
          "type": "address"
        },
        {
          "internalType": "uint96",
          "name": "_feeNumerator",
          "type": "uint96"
        }
      ],
      "name": "setMintConfiguration",
      "outputs": [],
      "stateMutability": "nonpayable",
      "type": "function"
    },
    {
      "inputs": [
        {
          "internalType": "bytes4",
          "name": "interfaceId",
          "type": "bytes4"
        }
      ],
      "name": "supportsInterface",
      "outputs": [
        {
          "internalType": "bool",
          "name": "",
          "type": "bool"
        }
      ],
      "stateMutability": "view",
      "type": "function"
    },
    {
      "inputs": [],
      "name": "symbol",
      "outputs": [
        {
          "internalType": "string",
          "name": "",
          "type": "string"
        }
      ],
      "stateMutability": "view",
      "type": "function"
    },
    {
      "inputs": [
        {
          "internalType": "uint256",
          "name": "tokenId",
          "type": "uint256"
        }
      ],
      "name": "tokenURI",
      "outputs": [
        {
          "internalType": "string",
          "name": "",
          "type": "string"
        }
      ],
      "stateMutability": "view",
      "type": "function"
    },
    {
      "inputs": [
        {
          "internalType": "address",
          "name": "from",
          "type": "address"
        },
        {
          "internalType": "address",
          "name": "to",
          "type": "address"
        },
        {
          "internalType": "uint256",
          "name": "tokenId",
          "type": "uint256"
        }
      ],
      "name": "transferFrom",
      "outputs": [],
      "stateMutability": "nonpayable",
      "type": "function"
    },
    {
      "inputs": [
        {
          "internalType": "address",
          "name": "newOwner",
          "type": "address"
        }
      ],
      "name": "transferOwnership",
      "outputs": [],
      "stateMutability": "nonpayable",
      "type": "function"
    },
    {
      "inputs": [],
      "name": "withdraw",
      "outputs": [],
      "stateMutability": "payable",
      "type": "function"
    }
  ],
  "bytecode": "0x60806040526000600a60006101000a81548160ff0219169083151502179055503480156200002c57600080fd5b50604051620040d3380380620040d38339818101604052810190620000529190620003c7565b338282816000908162000066919062000697565b50806001908162000078919062000697565b505050600073ffffffffffffffffffffffffffffffffffffffff168173ffffffffffffffffffffffffffffffffffffffff1603620000f05760006040517f1e4fbdf7000000000000000000000000000000000000000000000000000000008152600401620000e79190620007c3565b60405180910390fd5b62000101816200016e60201b60201c565b506000600a60006101000a81548160ff021916908315150217905550600060128190555033600b60006101000a81548173ffffffffffffffffffffffffffffffffffffffff021916908373ffffffffffffffffffffffffffffffffffffffff1602179055505050620007e0565b6000600760009054906101000a900473ffffffffffffffffffffffffffffffffffffffff16905081600760006101000a81548173ffffffffffffffffffffffffffffffffffffffff021916908373ffffffffffffffffffffffffffffffffffffffff1602179055508173ffffffffffffffffffffffffffffffffffffffff168173ffffffffffffffffffffffffffffffffffffffff167f8be0079c531659141344cd1fd0a4f28419497f9722a3daafe3b4186f6b6457e060405160405180910390a35050565b6000604051905090565b600080fd5b600080fd5b600080fd5b600080fd5b6000601f19601f8301169050919050565b7f4e487b7100000000000000000000000000000000000000000000000000000000600052604160045260246000fd5b6200029d8262000252565b810181811067ffffffffffffffff82111715620002bf57620002be62000263565b5b80604052505050565b6000620002d462000234565b9050620002e2828262000292565b919050565b600067ffffffffffffffff82111562000305576200030462000263565b5b620003108262000252565b9050602081019050919050565b60005b838110156200033d57808201518184015260208101905062000320565b60008484015250505050565b6000620003606200035a84620002e7565b620002c8565b9050828152602081018484840111156200037f576200037e6200024d565b5b6200038c8482856200031d565b509392505050565b600082601f830112620003ac57620003ab62000248565b5b8151620003be84826020860162000349565b91505092915050565b60008060408385031215620003e157620003e06200023e565b5b600083015167ffffffffffffffff81111562000402576200040162000243565b5b620004108582860162000394565b925050602083015167ffffffffffffffff81111562000434576200043362000243565b5b620004428582860162000394565b9150509250929050565b600081519050919050565b7f4e487b7100000000000000000000000000000000000000000000000000000000600052602260045260246000fd5b600060028204905060018216806200049f57607f821691505b602082108103620004b557620004b462000457565b5b50919050565b60008190508160005260206000209050919050565b60006020601f8301049050919050565b600082821b905092915050565b6000600883026200051f7fffffffffffffffffffffffffffffffffffffffffffffffffffffffffffffffff82620004e0565b6200052b8683620004e0565b95508019841693508086168417925050509392505050565b6000819050919050565b6000819050919050565b600062000578620005726200056c8462000543565b6200054d565b62000543565b9050919050565b6000819050919050565b620005948362000557565b620005ac620005a3826200057f565b848454620004ed565b825550505050565b600090565b620005c3620005b4565b620005d081848462000589565b505050565b5b81811015620005f857620005ec600082620005b9565b600181019050620005d6565b5050565b601f82111562000647576200061181620004bb565b6200061c84620004d0565b810160208510156200062c578190505b620006446200063b85620004d0565b830182620005d5565b50505b505050565b600082821c905092915050565b60006200066c600019846008026200064c565b1980831691505092915050565b600062000687838362000659565b9150826002028217905092915050565b620006a2826200044c565b67ffffffffffffffff811115620006be57620006bd62000263565b5b620006ca825462000486565b620006d7828285620005fc565b600060209050601f8311600181146200070f5760008415620006fa578287015190505b62000706858262000679565b86555062000776565b601f1984166200071f86620004bb565b60005b82811015620007495784890151825560018201915060208501945060208101905062000722565b8683101562000769578489015162000765601f89168262000659565b8355505b6001600288020188555050505b505050505050565b600073ffffffffffffffffffffffffffffffffffffffff82169050919050565b6000620007ab826200077e565b9050919050565b620007bd816200079e565b82525050565b6000602082019050620007da6000830184620007b2565b92915050565b6138e380620007f06000396000f3fe60806040526004361061014b5760003560e01c80637b47ec1a116100b6578063b88d4fde1161006f578063b88d4fde1461043b578063c87b56dd14610464578063e985e9c5146104a1578063eb8d2444146104de578063ebc9bd3b14610509578063f2fde38b146105345761014b565b80637b47ec1a146103535780637ba5e6211461037c5780638da5cb5b1461039357806391aa2876146103be57806395d89b41146103e7578063a22cb465146104125761014b565b80632a55205a116101085780632a55205a146102515780633ccfd60b1461028f57806342842e0e146102995780636352211e146102c257806370a08231146102ff578063715018a61461033c5761014b565b806301ffc9a71461015057806306fdde031461018d578063081812fc146101b8578063095ea7b3146101f55780630f550e161461021e57806323b872dd14610228575b600080fd5b34801561015c57600080fd5b506101776004803603810190610172919061278e565b61055d565b60405161018491906127d6565b60405180910390f35b34801561019957600080fd5b506101a261056f565b6040516101af9190612881565b60405180910390f35b3480156101c457600080fd5b506101df60048036038101906101da91906128d9565b610601565b6040516101ec9190612947565b60405180910390f35b34801561020157600080fd5b5061021c6004803603810190610217919061298e565b61061d565b005b610226610633565b005b34801561023457600080fd5b5061024f600480360381019061024a91906129ce565b610adb565b005b34801561025d57600080fd5b5061027860048036038101906102739190612a21565b610bdd565b604051610286929190612a70565b60405180910390f35b610297610dc7565b005b3480156102a557600080fd5b506102c060048036038101906102bb91906129ce565b610e1e565b005b3480156102ce57600080fd5b506102e960048036038101906102e491906128d9565b610e3e565b6040516102f69190612947565b60405180910390f35b34801561030b57600080fd5b5061032660048036038101906103219190612a99565b610e50565b6040516103339190612ac6565b60405180910390f35b34801561034857600080fd5b50610351610f0a565b005b34801561035f57600080fd5b5061037a600480360381019061037591906128d9565b610f1e565b005b34801561038857600080fd5b50610391610f2a565b005b34801561039f57600080fd5b506103a8610f5e565b6040516103b59190612947565b60405180910390f35b3480156103ca57600080fd5b506103e560048036038101906103e09190612ddb565b610f88565b005b3480156103f357600080fd5b506103fc6110bb565b6040516104099190612881565b60405180910390f35b34801561041e57600080fd5b5061043960048036038101906104349190612ec5565b61114d565b005b34801561044757600080fd5b50610462600480360381019061045d9190612fa6565b611163565b005b34801561047057600080fd5b5061048b600480360381019061048691906128d9565b611180565b6040516104989190612881565b60405180910390f35b3480156104ad57600080fd5b506104c860048036038101906104c39190613029565b611293565b6040516104d591906127d6565b60405180910390f35b3480156104ea57600080fd5b506104f3611327565b60405161050091906127d6565b60405180910390f35b34801561051557600080fd5b5061051e61133a565b60405161052b9190612ac6565b60405180910390f35b34801561054057600080fd5b5061055b60048036038101906105569190612a99565b611344565b005b6000610568826113ca565b9050919050565b60606000805461057e90613098565b80601f01602080910402602001604051908101604052809291908181526020018280546105aa90613098565b80156105f75780601f106105cc576101008083540402835291602001916105f7565b820191906000526020600020905b8154815290600101906020018083116105da57829003601f168201915b5050505050905090565b600061060c82611444565b50610616826114cc565b9050919050565b61062f828261062a611509565b611511565b5050565b601360009054906101000a900460ff1615610683576040517f08c379a000000000000000000000000000000000000000000000000000000000815260040161067a90613115565b60405180910390fd5b6001601360006101000a81548160ff02191690831515021790555060115442106106e2576040517f08c379a00000000000000000000000000000000000000000000000000000000081526004016106d990613181565b60405180910390fd5b6000349050600d5481101561072c576040517f08c379a0000000000000000000000000000000000000000000000000000000008152600401610723906131ed565b60405180910390fd5b600060405180602001604052806000815250905060006001601254610751919061323c565b9050600f548110610797576040517f08c379a000000000000000000000000000000000000000000000000000000000815260040161078e906132bc565b60405180910390fd5b600e546010546107a7919061323c565b831061087b57600c60006002808111156107c4576107c36132dc565b5b60028111156107d6576107d56132dc565b5b815260200190815260200160002080546107ef90613098565b80601f016020809104026020016040519081016040528092919081815260200182805461081b90613098565b80156108685780601f1061083d57610100808354040283529160200191610868565b820191906000526020600020905b81548152906001019060200180831161084b57829003601f168201915b5050505050915082601081905550610a2c565b600e54600d5461088b919061323c565b831015801561089b575060105483105b1561096857600c6000600160028111156108b8576108b76132dc565b5b60028111156108ca576108c96132dc565b5b815260200190815260200160002080546108e390613098565b80601f016020809104026020016040519081016040528092919081815260200182805461090f90613098565b801561095c5780601f106109315761010080835404028352916020019161095c565b820191906000526020600020905b81548152906001019060200180831161093f57829003601f168201915b50505050509150610a2b565b600c600080600281111561097f5761097e6132dc565b5b6002811115610991576109906132dc565b5b815260200190815260200160002080546109aa90613098565b80601f01602080910402602001604051908101604052809291908181526020018280546109d690613098565b8015610a235780601f106109f857610100808354040283529160200191610a23565b820191906000526020600020905b815481529060010190602001808311610a0657829003601f168201915b505050505091505b5b80601281905550610a7a81600a60019054906101000a900473ffffffffffffffffffffffffffffffffffffffff16600b60149054906101000a90046bffffffffffffffffffffffff16611523565b610a8481836116db565b610a8e3382611737565b610abb600b60009054906101000a900473ffffffffffffffffffffffffffffffffffffffff168233611511565b5050506000601360006101000a81548160ff021916908315150217905550565b600073ffffffffffffffffffffffffffffffffffffffff168273ffffffffffffffffffffffffffffffffffffffff1603610b4d5760006040517f64a0ae92000000000000000000000000000000000000000000000000000000008152600401610b449190612947565b60405180910390fd5b6000610b618383610b5c611509565b611830565b90508373ffffffffffffffffffffffffffffffffffffffff168173ffffffffffffffffffffffffffffffffffffffff1614610bd7578382826040517f64283d7b000000000000000000000000000000000000000000000000000000008152600401610bce9392919061330b565b60405180910390fd5b50505050565b6000806000600960008681526020019081526020016000206040518060400160405290816000820160009054906101000a900473ffffffffffffffffffffffffffffffffffffffff1673ffffffffffffffffffffffffffffffffffffffff1673ffffffffffffffffffffffffffffffffffffffff1681526020016000820160149054906101000a90046bffffffffffffffffffffffff166bffffffffffffffffffffffff166bffffffffffffffffffffffff16815250509050600073ffffffffffffffffffffffffffffffffffffffff16816000015173ffffffffffffffffffffffffffffffffffffffff1603610d725760086040518060400160405290816000820160009054906101000a900473ffffffffffffffffffffffffffffffffffffffff1673ffffffffffffffffffffffffffffffffffffffff1673ffffffffffffffffffffffffffffffffffffffff1681526020016000820160149054906101000a90046bffffffffffffffffffffffff166bffffffffffffffffffffffff166bffffffffffffffffffffffff168152505090505b6000610d7c611a4a565b6bffffffffffffffffffffffff1682602001516bffffffffffffffffffffffff1686610da89190613342565b610db291906133b3565b90508160000151819350935050509250929050565b610dcf611a54565b60004790503373ffffffffffffffffffffffffffffffffffffffff166108fc829081150290604051600060405180830381858888f19350505050158015610e1a573d6000803e3d6000fd5b5050565b610e3983838360405180602001604052806000815250611163565b505050565b6000610e4982611444565b9050919050565b60008073ffffffffffffffffffffffffffffffffffffffff168273ffffffffffffffffffffffffffffffffffffffff1603610ec35760006040517f89c62b64000000000000000000000000000000000000000000000000000000008152600401610eba9190612947565b60405180910390fd5b600360008373ffffffffffffffffffffffffffffffffffffffff1673ffffffffffffffffffffffffffffffffffffffff168152602001908152602001600020549050919050565b610f12611a54565b610f1c6000611adb565b565b610f2781611ba1565b50565b610f32611a54565b600a60009054906101000a900460ff1615600a60006101000a81548160ff021916908315150217905550565b6000600760009054906101000a900473ffffffffffffffffffffffffffffffffffffffff16905090565b610f90611a54565b86600d8190555085600e819055508660108190555060005b8451811015611031576000858281518110610fc657610fc56133e4565b5b602002602001015190508060000151600c600083602001516002811115610ff057610fef6132dc565b5b6002811115611002576110016132dc565b5b8152602001908152602001600020908161101c91906135bf565b5050808061102990613691565b915050610fa8565b5084600f819055508260118190555081600a60016101000a81548173ffffffffffffffffffffffffffffffffffffffff021916908373ffffffffffffffffffffffffffffffffffffffff16021790555080600b60146101000a8154816bffffffffffffffffffffffff02191690836bffffffffffffffffffffffff16021790555050505050505050565b6060600180546110ca90613098565b80601f01602080910402602001604051908101604052809291908181526020018280546110f690613098565b80156111435780601f1061111857610100808354040283529160200191611143565b820191906000526020600020905b81548152906001019060200180831161112657829003601f168201915b5050505050905090565b61115f611158611509565b8383611c27565b5050565b61116e848484610adb565b61117a84848484611d96565b50505050565b606061118b82611444565b5060006006600084815260200190815260200160002080546111ac90613098565b80601f01602080910402602001604051908101604052809291908181526020018280546111d890613098565b80156112255780601f106111fa57610100808354040283529160200191611225565b820191906000526020600020905b81548152906001019060200180831161120857829003601f168201915b505050505090506000611236611f4d565b9050600081510361124b57819250505061128e565b600082511115611280578082604051602001611268929190613715565b6040516020818303038152906040529250505061128e565b61128984611f64565b925050505b919050565b6000600560008473ffffffffffffffffffffffffffffffffffffffff1673ffffffffffffffffffffffffffffffffffffffff16815260200190815260200160002060008373ffffffffffffffffffffffffffffffffffffffff1673ffffffffffffffffffffffffffffffffffffffff16815260200190815260200160002060009054906101000a900460ff16905092915050565b600a60009054906101000a900460ff1681565b6000601254905090565b61134c611a54565b600073ffffffffffffffffffffffffffffffffffffffff168173ffffffffffffffffffffffffffffffffffffffff16036113be5760006040517f1e4fbdf70000000000000000000000000000000000000000000000000000000081526004016113b59190612947565b60405180910390fd5b6113c781611adb565b50565b60007f2a55205a000000000000000000000000000000000000000000000000000000007bffffffffffffffffffffffffffffffffffffffffffffffffffffffff1916827bffffffffffffffffffffffffffffffffffffffffffffffffffffffff1916148061143d575061143c82611fcd565b5b9050919050565b6000806114508361202e565b9050600073ffffffffffffffffffffffffffffffffffffffff168173ffffffffffffffffffffffffffffffffffffffff16036114c357826040517f7e2732890000000000000000000000000000000000000000000000000000000081526004016114ba9190612ac6565b60405180910390fd5b80915050919050565b60006004600083815260200190815260200160002060009054906101000a900473ffffffffffffffffffffffffffffffffffffffff169050919050565b600033905090565b61151e838383600161206b565b505050565b600061152d611a4a565b6bffffffffffffffffffffffff16905080826bffffffffffffffffffffffff161115611594578382826040517fdfd1fc1b00000000000000000000000000000000000000000000000000000000815260040161158b9392919061376a565b60405180910390fd5b600073ffffffffffffffffffffffffffffffffffffffff168373ffffffffffffffffffffffffffffffffffffffff1603611608578360006040517f969f08520000000000000000000000000000000000000000000000000000000081526004016115ff9291906137a1565b60405180910390fd5b60405180604001604052808473ffffffffffffffffffffffffffffffffffffffff168152602001836bffffffffffffffffffffffff168152506009600086815260200190815260200160002060008201518160000160006101000a81548173ffffffffffffffffffffffffffffffffffffffff021916908373ffffffffffffffffffffffffffffffffffffffff16021790555060208201518160000160146101000a8154816bffffffffffffffffffffffff02191690836bffffffffffffffffffffffff16021790555090505050505050565b806006600084815260200190815260200160002090816116fb91906135bf565b507ff8e1a15aba9398e019f0b49df1a4fde98ee17ae345cb5f6b5e2c27f5033e8ce78260405161172b9190612ac6565b60405180910390a15050565b600073ffffffffffffffffffffffffffffffffffffffff168273ffffffffffffffffffffffffffffffffffffffff16036117a95760006040517f64a0ae920000000000000000000000000000000000000000000000000000000081526004016117a09190612947565b60405180910390fd5b60006117b783836000611830565b9050600073ffffffffffffffffffffffffffffffffffffffff168173ffffffffffffffffffffffffffffffffffffffff161461182b5760006040517f73c6ac6e0000000000000000000000000000000000000000000000000000000081526004016118229190612947565b60405180910390fd5b505050565b60008061183c8461202e565b9050600073ffffffffffffffffffffffffffffffffffffffff168373ffffffffffffffffffffffffffffffffffffffff161461187e5761187d818486612230565b5b600073ffffffffffffffffffffffffffffffffffffffff168173ffffffffffffffffffffffffffffffffffffffff161461190f576118c060008560008061206b565b6001600360008373ffffffffffffffffffffffffffffffffffffffff1673ffffffffffffffffffffffffffffffffffffffff168152602001908152602001600020600082825403925050819055505b600073ffffffffffffffffffffffffffffffffffffffff168573ffffffffffffffffffffffffffffffffffffffff1614611992576001600360008773ffffffffffffffffffffffffffffffffffffffff1673ffffffffffffffffffffffffffffffffffffffff168152602001908152602001600020600082825401925050819055505b846002600086815260200190815260200160002060006101000a81548173ffffffffffffffffffffffffffffffffffffffff021916908373ffffffffffffffffffffffffffffffffffffffff160217905550838573ffffffffffffffffffffffffffffffffffffffff168273ffffffffffffffffffffffffffffffffffffffff167fddf252ad1be2c89b69c2b068fc378daa952ba7f163c4a11628f55a4df523b3ef60405160405180910390a4809150509392505050565b6000612710905090565b611a5c611509565b73ffffffffffffffffffffffffffffffffffffffff16611a7a610f5e565b73ffffffffffffffffffffffffffffffffffffffff1614611ad957611a9d611509565b6040517f118cdaa7000000000000000000000000000000000000000000000000000000008152600401611ad09190612947565b60405180910390fd5b565b6000600760009054906101000a900473ffffffffffffffffffffffffffffffffffffffff16905081600760006101000a81548173ffffffffffffffffffffffffffffffffffffffff021916908373ffffffffffffffffffffffffffffffffffffffff1602179055508173ffffffffffffffffffffffffffffffffffffffff168173ffffffffffffffffffffffffffffffffffffffff167f8be0079c531659141344cd1fd0a4f28419497f9722a3daafe3b4186f6b6457e060405160405180910390a35050565b6000611bb06000836000611830565b9050600073ffffffffffffffffffffffffffffffffffffffff168173ffffffffffffffffffffffffffffffffffffffff1603611c2357816040517f7e273289000000000000000000000000000000000000000000000000000000008152600401611c1a9190612ac6565b60405180910390fd5b5050565b600073ffffffffffffffffffffffffffffffffffffffff168273ffffffffffffffffffffffffffffffffffffffff1603611c9857816040517f5b08ba18000000000000000000000000000000000000000000000000000000008152600401611c8f9190612947565b60405180910390fd5b80600560008573ffffffffffffffffffffffffffffffffffffffff1673ffffffffffffffffffffffffffffffffffffffff16815260200190815260200160002060008473ffffffffffffffffffffffffffffffffffffffff1673ffffffffffffffffffffffffffffffffffffffff16815260200190815260200160002060006101000a81548160ff0219169083151502179055508173ffffffffffffffffffffffffffffffffffffffff168373ffffffffffffffffffffffffffffffffffffffff167f17307eab39ab6107e8899845ad3d59bd9653f200f220920489ca2b5937696c3183604051611d8991906127d6565b60405180910390a3505050565b60008373ffffffffffffffffffffffffffffffffffffffff163b1115611f47578273ffffffffffffffffffffffffffffffffffffffff1663150b7a02611dda611509565b8685856040518563ffffffff1660e01b8152600401611dfc949392919061381f565b6020604051808303816000875af1925050508015611e3857506040513d601f19601f82011682018060405250810190611e359190613880565b60015b611ebc573d8060008114611e68576040519150601f19603f3d011682016040523d82523d6000602084013e611e6d565b606091505b506000815103611eb457836040517f64a0ae92000000000000000000000000000000000000000000000000000000008152600401611eab9190612947565b60405180910390fd5b805181602001fd5b63150b7a0260e01b7bffffffffffffffffffffffffffffffffffffffffffffffffffffffff1916817bffffffffffffffffffffffffffffffffffffffffffffffffffffffff191614611f4557836040517f64a0ae92000000000000000000000000000000000000000000000000000000008152600401611f3c9190612947565b60405180910390fd5b505b50505050565b606060405180602001604052806000815250905090565b6060611f6f82611444565b506000611f7a611f4d565b90506000815111611f9a5760405180602001604052806000815250611fc5565b80611fa4846122f4565b604051602001611fb5929190613715565b6040516020818303038152906040525b915050919050565b6000634906490660e01b7bffffffffffffffffffffffffffffffffffffffffffffffffffffffff1916827bffffffffffffffffffffffffffffffffffffffffffffffffffffffff191614806120275750612026826123c2565b5b9050919050565b60006002600083815260200190815260200160002060009054906101000a900473ffffffffffffffffffffffffffffffffffffffff169050919050565b80806120a45750600073ffffffffffffffffffffffffffffffffffffffff168273ffffffffffffffffffffffffffffffffffffffff1614155b156121d85760006120b484611444565b9050600073ffffffffffffffffffffffffffffffffffffffff168373ffffffffffffffffffffffffffffffffffffffff161415801561211f57508273ffffffffffffffffffffffffffffffffffffffff168173ffffffffffffffffffffffffffffffffffffffff1614155b801561213257506121308184611293565b155b1561217457826040517fa9fbf51f00000000000000000000000000000000000000000000000000000000815260040161216b9190612947565b60405180910390fd5b81156121d657838573ffffffffffffffffffffffffffffffffffffffff168273ffffffffffffffffffffffffffffffffffffffff167f8c5be1e5ebec7d5bd14f71427d1e84f3dd0314c0f7b2291e5b200ac8c7c3b92560405160405180910390a45b505b836004600085815260200190815260200160002060006101000a81548173ffffffffffffffffffffffffffffffffffffffff021916908373ffffffffffffffffffffffffffffffffffffffff16021790555050505050565b61223b8383836124a4565b6122ef57600073ffffffffffffffffffffffffffffffffffffffff168373ffffffffffffffffffffffffffffffffffffffff16036122b057806040517f7e2732890000000000000000000000000000000000000000000000000000000081526004016122a79190612ac6565b60405180910390fd5b81816040517f177e802f0000000000000000000000000000000000000000000000000000000081526004016122e6929190612a70565b60405180910390fd5b505050565b60606000600161230384612565565b01905060008167ffffffffffffffff81111561232257612321612ae6565b5b6040519080825280601f01601f1916602001820160405280156123545781602001600182028036833780820191505090505b509050600082602001820190505b6001156123b7578080600190039150507f3031323334353637383961626364656600000000000000000000000000000000600a86061a8153600a85816123ab576123aa613384565b5b04945060008503612362575b819350505050919050565b60007f80ac58cd000000000000000000000000000000000000000000000000000000007bffffffffffffffffffffffffffffffffffffffffffffffffffffffff1916827bffffffffffffffffffffffffffffffffffffffffffffffffffffffff1916148061248d57507f5b5e139f000000000000000000000000000000000000000000000000000000007bffffffffffffffffffffffffffffffffffffffffffffffffffffffff1916827bffffffffffffffffffffffffffffffffffffffffffffffffffffffff1916145b8061249d575061249c826126b8565b5b9050919050565b60008073ffffffffffffffffffffffffffffffffffffffff168373ffffffffffffffffffffffffffffffffffffffff161415801561255c57508273ffffffffffffffffffffffffffffffffffffffff168473ffffffffffffffffffffffffffffffffffffffff16148061251d575061251c8484611293565b5b8061255b57508273ffffffffffffffffffffffffffffffffffffffff16612543836114cc565b73ffffffffffffffffffffffffffffffffffffffff16145b5b90509392505050565b600080600090507a184f03e93ff9f4daa797ed6e38ed64bf6a1f01000000000000000083106125c3577a184f03e93ff9f4daa797ed6e38ed64bf6a1f01000000000000000083816125b9576125b8613384565b5b0492506040810190505b6d04ee2d6d415b85acef81000000008310612600576d04ee2d6d415b85acef810000000083816125f6576125f5613384565b5b0492506020810190505b662386f26fc10000831061262f57662386f26fc10000838161262557612624613384565b5b0492506010810190505b6305f5e1008310612658576305f5e100838161264e5761264d613384565b5b0492506008810190505b612710831061267d57612710838161267357612672613384565b5b0492506004810190505b606483106126a0576064838161269657612695613384565b5b0492506002810190505b600a83106126af576001810190505b80915050919050565b60007f01ffc9a7000000000000000000000000000000000000000000000000000000007bffffffffffffffffffffffffffffffffffffffffffffffffffffffff1916827bffffffffffffffffffffffffffffffffffffffffffffffffffffffff1916149050919050565b6000604051905090565b600080fd5b600080fd5b60007fffffffff0000000000000000000000000000000000000000000000000000000082169050919050565b61276b81612736565b811461277657600080fd5b50565b60008135905061278881612762565b92915050565b6000602082840312156127a4576127a361272c565b5b60006127b284828501612779565b91505092915050565b60008115159050919050565b6127d0816127bb565b82525050565b60006020820190506127eb60008301846127c7565b92915050565b600081519050919050565b600082825260208201905092915050565b60005b8381101561282b578082015181840152602081019050612810565b60008484015250505050565b6000601f19601f8301169050919050565b6000612853826127f1565b61285d81856127fc565b935061286d81856020860161280d565b61287681612837565b840191505092915050565b6000602082019050818103600083015261289b8184612848565b905092915050565b6000819050919050565b6128b6816128a3565b81146128c157600080fd5b50565b6000813590506128d3816128ad565b92915050565b6000602082840312156128ef576128ee61272c565b5b60006128fd848285016128c4565b91505092915050565b600073ffffffffffffffffffffffffffffffffffffffff82169050919050565b600061293182612906565b9050919050565b61294181612926565b82525050565b600060208201905061295c6000830184612938565b92915050565b61296b81612926565b811461297657600080fd5b50565b60008135905061298881612962565b92915050565b600080604083850312156129a5576129a461272c565b5b60006129b385828601612979565b92505060206129c4858286016128c4565b9150509250929050565b6000806000606084860312156129e7576129e661272c565b5b60006129f586828701612979565b9350506020612a0686828701612979565b9250506040612a17868287016128c4565b9150509250925092565b60008060408385031215612a3857612a3761272c565b5b6000612a46858286016128c4565b9250506020612a57858286016128c4565b9150509250929050565b612a6a816128a3565b82525050565b6000604082019050612a856000830185612938565b612a926020830184612a61565b9392505050565b600060208284031215612aaf57612aae61272c565b5b6000612abd84828501612979565b91505092915050565b6000602082019050612adb6000830184612a61565b92915050565b600080fd5b7f4e487b7100000000000000000000000000000000000000000000000000000000600052604160045260246000fd5b612b1e82612837565b810181811067ffffffffffffffff82111715612b3d57612b3c612ae6565b5b80604052505050565b6000612b50612722565b9050612b5c8282612b15565b919050565b600067ffffffffffffffff821115612b7c57612b7b612ae6565b5b602082029050602081019050919050565b600080fd5b600080fd5b600080fd5b600080fd5b600067ffffffffffffffff821115612bbc57612bbb612ae6565b5b612bc582612837565b9050602081019050919050565b82818337600083830152505050565b6000612bf4612bef84612ba1565b612b46565b905082815260208101848484011115612c1057612c0f612b9c565b5b612c1b848285612bd2565b509392505050565b600082601f830112612c3857612c37612ae1565b5b8135612c48848260208601612be1565b91505092915050565b60038110612c5e57600080fd5b50565b600081359050612c7081612c51565b92915050565b600060408284031215612c8c57612c8b612b92565b5b612c966040612b46565b9050600082013567ffffffffffffffff811115612cb657612cb5612b97565b5b612cc284828501612c23565b6000830152506020612cd684828501612c61565b60208301525092915050565b6000612cf5612cf084612b61565b612b46565b90508083825260208201905060208402830185811115612d1857612d17612b8d565b5b835b81811015612d5f57803567ffffffffffffffff811115612d3d57612d3c612ae1565b5b808601612d4a8982612c76565b85526020850194505050602081019050612d1a565b5050509392505050565b600082601f830112612d7e57612d7d612ae1565b5b8135612d8e848260208601612ce2565b91505092915050565b60006bffffffffffffffffffffffff82169050919050565b612db881612d97565b8114612dc357600080fd5b50565b600081359050612dd581612daf565b92915050565b600080600080600080600060e0888a031215612dfa57612df961272c565b5b6000612e088a828b016128c4565b9750506020612e198a828b016128c4565b9650506040612e2a8a828b016128c4565b955050606088013567ffffffffffffffff811115612e4b57612e4a612731565b5b612e578a828b01612d69565b9450506080612e688a828b016128c4565b93505060a0612e798a828b01612979565b92505060c0612e8a8a828b01612dc6565b91505092959891949750929550565b612ea2816127bb565b8114612ead57600080fd5b50565b600081359050612ebf81612e99565b92915050565b60008060408385031215612edc57612edb61272c565b5b6000612eea85828601612979565b9250506020612efb85828601612eb0565b9150509250929050565b600067ffffffffffffffff821115612f2057612f1f612ae6565b5b612f2982612837565b9050602081019050919050565b6000612f49612f4484612f05565b612b46565b905082815260208101848484011115612f6557612f64612b9c565b5b612f70848285612bd2565b509392505050565b600082601f830112612f8d57612f8c612ae1565b5b8135612f9d848260208601612f36565b91505092915050565b60008060008060808587031215612fc057612fbf61272c565b5b6000612fce87828801612979565b9450506020612fdf87828801612979565b9350506040612ff0878288016128c4565b925050606085013567ffffffffffffffff81111561301157613010612731565b5b61301d87828801612f78565b91505092959194509250565b600080604083850312156130405761303f61272c565b5b600061304e85828601612979565b925050602061305f85828601612979565b9150509250929050565b7f4e487b7100000000000000000000000000000000000000000000000000000000600052602260045260246000fd5b600060028204905060018216806130b057607f821691505b6020821081036130c3576130c2613069565b5b50919050565b7f4c6f636b65642e20506c656173652074727920616761696e2100000000000000600082015250565b60006130ff6019836127fc565b915061310a826130c9565b602082019050919050565b6000602082019050818103600083015261312e816130f2565b9050919050565b7f53616c6520657870697265642100000000000000000000000000000000000000600082015250565b600061316b600d836127fc565b915061317682613135565b602082019050919050565b6000602082019050818103600083015261319a8161315e565b9050919050565b7f43616e2774206d696e742062656c6f77206d696e696d756d2100000000000000600082015250565b60006131d76019836127fc565b91506131e2826131a1565b602082019050919050565b60006020820190508181036000830152613206816131ca565b9050919050565b7f4e487b7100000000000000000000000000000000000000000000000000000000600052601160045260246000fd5b6000613247826128a3565b9150613252836128a3565b925082820190508082111561326a5761326961320d565b5b92915050565b7f537570706c79206c696d69742072656163686564210000000000000000000000600082015250565b60006132a66015836127fc565b91506132b182613270565b602082019050919050565b600060208201905081810360008301526132d581613299565b9050919050565b7f4e487b7100000000000000000000000000000000000000000000000000000000600052602160045260246000fd5b60006060820190506133206000830186612938565b61332d6020830185612a61565b61333a6040830184612938565b949350505050565b600061334d826128a3565b9150613358836128a3565b9250828202613366816128a3565b9150828204841483151761337d5761337c61320d565b5b5092915050565b7f4e487b7100000000000000000000000000000000000000000000000000000000600052601260045260246000fd5b60006133be826128a3565b91506133c9836128a3565b9250826133d9576133d8613384565b5b828204905092915050565b7f4e487b7100000000000000000000000000000000000000000000000000000000600052603260045260246000fd5b60008190508160005260206000209050919050565b60006020601f8301049050919050565b600082821b905092915050565b6000600883026134757fffffffffffffffffffffffffffffffffffffffffffffffffffffffffffffffff82613438565b61347f8683613438565b95508019841693508086168417925050509392505050565b6000819050919050565b60006134bc6134b76134b2846128a3565b613497565b6128a3565b9050919050565b6000819050919050565b6134d6836134a1565b6134ea6134e2826134c3565b848454613445565b825550505050565b600090565b6134ff6134f2565b61350a8184846134cd565b505050565b5b8181101561352e576135236000826134f7565b600181019050613510565b5050565b601f8211156135735761354481613413565b61354d84613428565b8101602085101561355c578190505b61357061356885613428565b83018261350f565b50505b505050565b600082821c905092915050565b600061359660001984600802613578565b1980831691505092915050565b60006135af8383613585565b9150826002028217905092915050565b6135c8826127f1565b67ffffffffffffffff8111156135e1576135e0612ae6565b5b6135eb8254613098565b6135f6828285613532565b600060209050601f8311600181146136295760008415613617578287015190505b61362185826135a3565b865550613689565b601f19841661363786613413565b60005b8281101561365f5784890151825560018201915060208501945060208101905061363a565b8683101561367c5784890151613678601f891682613585565b8355505b6001600288020188555050505b505050505050565b600061369c826128a3565b91507fffffffffffffffffffffffffffffffffffffffffffffffffffffffffffffffff82036136ce576136cd61320d565b5b600182019050919050565b600081905092915050565b60006136ef826127f1565b6136f981856136d9565b935061370981856020860161280d565b80840191505092915050565b600061372182856136e4565b915061372d82846136e4565b91508190509392505050565b600061375461374f61374a84612d97565b613497565b6128a3565b9050919050565b61376481613739565b82525050565b600060608201905061377f6000830186612a61565b61378c602083018561375b565b6137996040830184612a61565b949350505050565b60006040820190506137b66000830185612a61565b6137c36020830184612938565b9392505050565b600081519050919050565b600082825260208201905092915050565b60006137f1826137ca565b6137fb81856137d5565b935061380b81856020860161280d565b61381481612837565b840191505092915050565b60006080820190506138346000830187612938565b6138416020830186612938565b61384e6040830185612a61565b818103606083015261386081846137e6565b905095945050505050565b60008151905061387a81612762565b92915050565b6000602082840312156138965761389561272c565b5b60006138a48482850161386b565b9150509291505056fea2646970667358221220c8fbb2797f0cb27433dbf3466fac27eb31adb581129c49377c28985c337ffe3764736f6c63430008140033",
  "linkReferences": {},
  "deployedLinkReferences": {}
}